:020000040000FA
:10000000100E0010B9020000BD020000BF02000087
:10001000C1020000C3020000C50200000000000091
:10002000000000000000000000000000C702000007
:10003000C902000000000000CB020000CD02000059
:10004000CF020000CF020000CF020000CF0200006C
:10005000CF020000CF020000CF020000CF0200005C
:10006000CF020000CF020000CF020000CF0200004C
:10007000CF020000CF0200002B41000085460000A7
:10008000CB4B0000074C00002F3D0000673D0000F7
:10009000E9400000413A0000CF020000CF0200001A
:1000A000CF020000CF020000CF020000CF0200000C
:1000B000C9160000A7160000531600002516000000
:1000C0000348854605F05CFB004800471D0500001D
:1000D000100E00100FB470B56946498A481E0621FB
:1000E00000F0F8F885B2681C0621484384B26946DE
:1000F000088AA04201DD052606E06946098A481EF5
:10010000062100F0E7F88EB200210846059A01F0BA
:10011000E7FF502300226621104601F0A5FF672368
:1001200000226C21104601F09FFF20230022722143
:10013000104601F099FF28463130C3B200227821E1
:10014000104601F091FF00210120069A01F0C8FF3E
:10015000002420E06846418A062068430019401CBC
:1001600081420BD10621694309198B0007A9CA589E
:10017000A11CC8B2012101F0B3FF0AE006216943C6
:1001800009198B0007A9CA58A11CC8B2002101F0A7
:10019000A7FF601C84B2B442DCDD70BC08BC04B0B4
:1001A0001847000010B503F0CAF901F0DFFB02F0B8
:1001B00041FC02F009FF02F0B4FA03F008F818213C
:1001C000314804F018FF10BD10B530480078FF2802
:1001D0000BD101F0EEFB03F07DF902F016FC02F00A
:1001E00081FE02F0CEFF00F07EFA10BD7321264A98
:1001F0001170742151703A2191706521D1701146AE
:10020000087123490978FF2912D10021204A117071
:10021000204909781C4A51711E494A781A498A7145
:100220001D490978184AD1711B494A7816490A7242
:100230001A490978FF2906D10021184A1170184976
:100240000968114AD16017490978FF290CD10021AA
:10025000144A1170144909780B4A51721249097BEA
:1002600091721149097ED17210490978FF2909D18B
:1002700000210E4A11700E490968034A11610D49A7
:1002800009685161704700005C0900107207001096
:10029000B8070010B4070010B6070010CC07001014
:1002A000C8070010D60700108C0A0010F8070010CD
:1002B000F4070010F007001005480047FEE7FEE7CE
:1002C000FEE7FEE7FEE7FEE7FEE7FEE7FEE7FEE706
:1002D000C100000070B500242546002801DA012481
:1002E0004042002901DA0125494204F043FEAC42B4
:1002F00000D04042002C00D0494270BDFFFFFFFFFC
:1003000010B5002819DA934A03071B0F083B9B0816
:100310009B00D2588307DC0EFF23A3409A434B0770
:100320001B0E8407E40EA3401A438A4B0407240FD4
:10033000083CA408A4001A5118E0874A03231B02B2
:10034000D21883089B00D2588307DC0EFF23A340FA
:100350009A434B071B0E8407E40EA3401A437E4BBF
:10036000032424021B198408A4001A5110BD02465C
:10037000002107E07948405C904201D1012070479C
:10038000481CC1B26429F5DB0020F8E7F0B585B060
:1003900073480190062004F00CFE019801F064FD02
:1003A000002404E0FF202D3001F0B1F8641C0A2C79
:1003B000F8DB00273C46002404E06A48015D019810
:1003C0000155641C032000028442F6DB654801F0FD
:1003D0004BFD002404E0FF202D3001F098F8641C50
:1003E0000A2CF8DB022004F0E4FD002734E004F0DE
:1003F000D7FD30210090FFF76DFFCEB2322E01DC29
:10040000012E00DA28E03046FFF7B1FF002800D0C7
:1004100022E07007400F0390F010029000240EE0DD
:100420000298C0014F494018005D012203998A409B
:1004300090430299C9014B4A89180855641C802CC5
:10044000EEDB38467F1C45490E54464801F00CFD52
:10045000142001F05CF800BF2F2FC8D1FF205530C9
:1004600001F055F8052004F0A4FD00272BE004F06E
:1004700097FD0090C017410E00980818C011C101E7
:100480000098401AC5B2802D01DC002D00DA1AE078
:100490002846FFF76CFF002800D014E0002408E095
:1004A000E0012F494018405DE1012E4A8918485566
:1004B000641C062CF4DB38467F1C28490D5429485F
:1004C00001F0D2FC00BFC72FD1DB002404E0FF20E5
:1004D0002D3001F01CF8641C0A2CF8DB01F0DEFC66
:1004E00005B0F0BD10B503F08BF803F0B3F8302081
:1004F00000F0DAFF1C49002003F05AFC0021122012
:10050000FFF7FEFE002003F0FEFBE120400203F0B7
:10051000F1FA02211520FFF7F3FE10BDFFF7E2FF0D
:1005200001F01EF8FFF73EFE00F022F80F4800F041
:1005300087FFFFF72BFF0CE001F041F8FFF744FEC7
:10054000012000F06FF9012000F07BF9012000F09C
:10055000F5FDF1E71CED00E000E100E0940800107B
:1005600000030010000000100053070000060010F8
:1005700010B501F01AF901F07EF901F000F901F06F
:10058000F3FA00F035F901F0D6FF002001F045F94B
:10059000002001F0B4F9002001F0C9F9202001F099
:1005A000FEFA0020644908706449087010BD10B557
:1005B0000446002C06D0012C0ED0022C16D0032CA1
:1005C00028D11DE05D480078400840005B49087074
:1005D000002001F022F91EE058480078012108436C
:1005E00056490870012001F018F914E053480078CA
:1005F0000121084351490870022001F00EF90AE078
:100600004E480078012108434C490870032001F04E
:1006100004F900E000BF00BF10BD10B50446002C77
:1006200006D0012C0ED0022C16D0032C16D114E0CB
:10063000424800780221884340490870002001F0B8
:100640005EF90CE03D480078022108433B49087000
:10065000012001F054F902E001E000E000BF00BF1A
:1006600010BD10B50446002C02D0012C14D109E0B5
:10067000324800780421884330490870002001F096
:1006800056F90AE02D480078042108432B490870E8
:10069000012001F04CF900E000BF00BF10BD10B513
:1006A0000446092C09DC2548007808210843234921
:1006B0000870204601F073FA14E00F2C09D11F488E
:1006C0000078082188431D490870202001F067FA4E
:1006D00008E01A480078082188431849087020204B
:1006E00001F05DFA10BD10B513480078002804DD54
:1006F00011480078401E1049087010480078022107
:10070000084203D0012001F0FAF813E00A4800780B
:10071000002808D1094800780221084203D10020AE
:1007200001F0EDF806E004480078002802DD012021
:1007300001F0E5F810BD00001506001014060010C9
:1007400038B504460020009033480078FF283FD198
:10075000002031490870684602F0A8FE002837D012
:10076000684600782D49087068460078C021084026
:10077000A101884229D1684600783021084006D07E
:1007800010280BD0202810D030281CD114E0694646
:1007900009780807000FFFF70AFF15E06946097896
:1007A0000807000FFFF739FF0EE0694609780807D0
:1007B000000FFFF756FF07E0694609780807000FAA
:1007C000FFF76DFF00E000BF00BF6846007838BD4E
:1007D0000120FCE770B505460E46002400BF04E08A
:1007E000285D02F016FE601CC4B2B442F8DB70BD96
:1007F00010B5012003F05CFD02220821012003F066
:100800004EFEE1214902012002F073FD0020024961
:1008100008700349087010BD180600101606001075
:100820001706001038B50446002000902046FFF758
:1008300087FF0090012803D068460078FF490870C0
:1008400038BD10B586B004461821684604F0D3FBC5
:100850002046FFF7CBFCFA480078FF2808D1182281
:10086000F849684604F0AEFB18216846FFF7B2FF6E
:1008700006B010BD7CB504460D461646002000901B
:1008800001907320F0490870742048703A208870F5
:100890007220C87008460471EC480078002802D124
:1008A0004920487106E0E9480078012802D14F202C
:1008B000E5494871E4488571C671082201466846D9
:1008C00004F080FB08216846FFF784FF7CBD70B50B
:1008D000A4B014211FA804F08EFB0024DC4800788B
:1008E000012804D10020DA49087001F0D7FAD9486C
:1008F0000078FF287ED1D84800780A2803DA202023
:10090000D649C87207E0D44908780A21FFF7E2FC0B
:100910003030D249C872D04908780A21FFF7DAFC92
:100920003031C8B2CD490873CB4948780A21FFF766
:10093000D1FC3031C8B2C9498873C94800780A2847
:1009400003DA2021C548C17708E0C54908780A21A3
:10095000FFF7C0FC3030C1B2C048C177C049087849
:100960000A21FFF7B7FC3031BC4814300173BC4991
:1009700048780A21FFF7AEFC3031B8481430817353
:1009800020211430C172017341738173B54800682E
:100990007D21C900884208D3B248006804F0EAFA11
:1009A0003030C1B2AD482830C172AE48006864280A
:1009B0000CD36421AB48006804F0DCFA05460A2138
:1009C00004F0D8FA3031A54828300173A5480068F2
:1009D0000A280CD30A21A348006804F0CBFA054684
:1009E0000A2104F0C7FA30319C48283041730A21AB
:1009F0009C4800E0C8E2006804F0BCFA3031974837
:100A0000283081739848006804F070FC974A984B2E
:100A10001B911A9004F080FB05460022954B04F0D0
:100A2000E1FB1D911C9004F06FFC3030C1B28B488B
:100A30003C30C1728C4909684A0188188E4904F01B
:100A400099FAC5B20A212846FFF744FC30318348A1
:100A50003C30417384490968FF224B3251430846B8
:100A6000854904F087FAC5B20A212846FFF732FC0F
:100A700030317A483C3081738048006804F036FC9D
:100A80007A4A7B4B1B911A9004F046FB05460022E4
:100A9000784B04F0A7FB1D911C9004F035FC30301E
:100AA000C1B26E485030C172744909684A01881851
:100AB000714904F05FFAC5B20A212846FFF70AFC23
:100AC00030316648503041736C490968FF224B321F
:100AD00051430846684904F04DFAC5B20A21284638
:100AE000FFF7F8FB30315D48503081736449886806
:100AF000002104F059FC40D86149886804F020FCCA
:100B000060A20191009014211FA804F0E9FE1FA823
:100B100004F07DFAC4B2032C14D120214F48643074
:100B20008172C17218A8017F4C486430017318A803
:100B3000417F4A486430417318A8817F4748643038
:100B4000817364E0042C62D12021444864308172B6
:100B500018A8017F41486430C17218A8417F3F48FE
:100B60006430017318A8817F3C486430417318A831
:100B7000C17F3A486430817349E04149886804F094
:100B8000DFFB40A20191009014211FA804F0A8FEF1
:100B90001FA804F03CFAC4B2042C19D120212F481C
:100BA00064304172817218A8017F2C486430C17290
:100BB00018A8417F29486430017318A8817F27480D
:100BC0006430417318A8C17F2448643081731EE0EB
:100BD000052C1CD1202121486430417218A8017FC6
:100BE0001E486430817218A8417F1C486430C1726D
:100BF00018A8817F19486430017318A8C17F17486D
:100C00006430417320A80178144864308173002453
:100C100004E000201FA90855601CC4B2142CF8DBA6
:100C2000002417494869002104F0BEFB60D814492C
:100C3000486904F085FB13A2019127E01706001014
:100C4000740700105C090010620700106D070010A7
:100C50006A07001073070010B40700104806001060
:100C6000B6070010C8070010F40700106666666635
:100C700066660A4000F88F40FF030000F00700108E
:100C80008C0A0010252E316600000000009014210F
:100C90001FA804F025FE1FA804F0B9F9C4B2032C64
:100CA00010D12021FE488172C17218A8017FFC4832
:100CB000017318A8417FFA48417318A8817FF8484A
:100CC000817354E0042C52D12021F548817218A878
:100CD000017FF348C17218A8417FF148017318A839
:100CE000817FEF48417318A8C17FED4881733EE0D2
:100CF000EC49486904F024FBEB4A0191009014216F
:100D00001FA804F0EDFD1FA804F081F9C4B2042C63
:100D100014D12021E2484172817218A8017FE04875
:100D2000C17218A8417FDE48017318A8817FDC4892
:100D3000417318A8C17FDA48817318E0052C16D1D9
:100D40002021D748417218A8017FD548817218A880
:100D5000417FD348C17218A8817FD148017318A878
:100D6000C17FCF48417320A80178CD48817300240A
:100D700004E000201FA90855601CC4B2142CF8DB45
:100D80000024C849086A002104F00EFB40D8C54978
:100D9000086A04F0D5FAC44A0191009014211FA8F2
:100DA00004F09EFD1FA804F032F9C4B2032C14D144
:100DB0002021BB4814308172C17218A8017FB84845
:100DC0001430017318A8417FB5481430417318A836
:100DD000817FB3481430817364E0042C62D12021F8
:100DE000AF481430817218A8017FAD481430C17229
:100DF00018A8417FAA481430017318A8817FA84819
:100E00001430417318A8C17FA5481430817349E09C
:100E1000A449086A04F094FAA34A019100901421AD
:100E20001FA804F05DFD1FA804F0F1F8C4B2042C63
:100E300019D120219A4814304172817218A8017F7B
:100E400097481430C17218A8417F95481430017337
:100E500018A8817F92481430417318A8C17F904828
:100E6000143081731EE0052C1CD120218C481430D5
:100E7000417218A8017F8A481430817218A8417FF6
:100E800087481430C17218A8817F854814300173D7
:100E900018A8C17F82481430417320A80178804887
:100EA0001430817381480078C007C00F08D020211A
:100EB0007B48283001734F2141734E2181730BE031
:100EC0007A480078C007C00F06D14F2174482830F7
:100ED00001734621417381737448007802210842EE
:100EE00008D020216E483C3001734F2141734E21C0
:100EF00081730BE06D4800780221084206D14F2132
:100F000067483C300173462141738173674800781C
:100F10000421084208D020216148503001734F213C
:100F200041734E2181730BE0604800780421084230
:100F300006D14F215A4850300173462141738173C5
:100F40005A4800780821084208D0202154486430CB
:100F500001734F2141734E2181730BE05348007898
:100F60000821084206D14F214D48643001734621C3
:100F7000417381737C224E49684604F023F84C4843
:100F800010380FC8FFF7A6F824B070BD10B5A0B098
:100F900048480078002804D101204649087000F034
:100FA0007DFF45480078FF2879D144480078401EED
:100FB00000014349085C4349C87240480078401E1C
:100FC00000013F49401840783E4908733B4800788B
:100FD000401E00013A49401880783A494873374822
:100FE0000078401E000136494018C07835498873A2
:100FF00032480078401E00013149401800793149DB
:10100000C8732E480078401E00012D4940184079D1
:101010002C4908742C48007864282FDB2B48007872
:10102000012804D12D2127481430417303E02021E9
:10103000244814304173642123480078FFF74AF9AB
:101040003030C1B21F48143081730A211E48007825
:10105000FFF740F90C460A212046FFF73BF93030F4
:10106000C1B218481430C173642117480078FFF7E3
:1010700031F9303113481430017453E012480078CC
:101080000A283ADB20210F48143041730F480078BA
:1010900001281DD12D210B48143081731BE04BE03A
:1010A000C00600108C0A0010840C0000140600100A
:1010B000840900106A070010730700106B07001006
:1010C00004660000380700106C0700106D07001060
:1010D0002021E54881730A21E4480078FFF7FAF8F7
:1010E0003030C1B2E048C1730A21E0480078FFF710
:1010F000F1F83031DC48017414E02021DA48417302
:101100008173DB480078012803D12D21D648C173B3
:1011100002E02021D448C173D44800783030C1B2F5
:10112000D14801747C22D349684603F04BFFD14873
:1011300010380FC8FEF7CEFF20B010BD10B5044622
:10114000CD480078FF2810D1CC480078002806D17F
:101150000120CA4908700A20C949087002E0282005
:10116000C74908700020C4490870C44800780128A5
:1011700077D1C4480078002851D1C34800780328AB
:1011800006D0042816D0052826D0062845D131E0FF
:10119000BE480078401CBD49087008460078072802
:1011A00001DD012008700A20B54908700020B64909
:1011B000087033E0B5480078401EB449087008460E
:1011C0000078012801DA072008700A20AC4908706D
:1011D0000020AD49087021E00120AA4908700A20CA
:1011E000A74908700220A349103948800020A64969
:1011F000087013E00120A54908700020A14908707B
:101200009E4908700A209E490870012099491039AA
:10121000488000209C49087000E000BFA7E0994882
:1012200000780128FAD198480078012806D00228D1
:1012300030D0052861D006287ED17EE08C48007829
:1012400000280FD189480078401C8849087008465A
:101250000078642801DB642008700A20884908703F
:1012600014E087E08248007801280FD17F48007899
:10127000401E7E49087008460078002803DC0020E4
:1012800008707B4908700A207D49087000207E495B
:1012900008706BE075480078002802D1012074497D
:1012A000087073480078002811D170480078401EFB
:1012B0006E49087008460078002804DC0020087099
:1012C00001206B4908700A206D49087011E06848D8
:1012D000007801280DD165480078401C63490870EA
:1012E00008460078642801DB642008700A206449FD
:1012F000087000206449087038E05C480278634850
:1013000001782046FFF7B6FA0020584908700120FE
:101310005E4908700020564908705A4908705749BC
:1013200008700A2056490870012052491039488037
:1013300000205549087019E017E000204B4908705B
:101340000120524908700020494908704D49087031
:101350004A4908700A204A49087001204549103955
:10136000488000204849087000E000BF00BFFFF738
:101370000DFE30E044480078012815D0022826D11F
:1013800043484088401C42494880084640880988B4
:10139000884202DD01203E4948800A203849087011
:1013A00000203949087013E039484088401E384908
:1013B000488008464088002802DC084600884880AB
:1013C0000A202F49087000202F49087000E000BF54
:1013D00000BFFFF77CFA10BD0C202D4908800120CA
:1013E00048802C48006848602B4888602B48C860BB
:1013F0001430086114304861143088611430C861B9
:101400001430086214304862143088621430C862A4
:101410001430086314304863143088637047022026
:10142000144910390880012048801A480068486033
:101430001B4888600C481438C86014300861704735
:1014400000B50246012011490870002007490870C4
:10145000074908700F480260FFF7BEFFFFF7DFFF84
:1014600000201049087000BD4C0700106C070010E8
:101470006D070010100A0010D90700106007001057
:101480001506001061070010B20700106B0700106E
:10149000740900101C0600102006001048060010F9
:1014A000340600106A07001004212A4A116111460F
:1014B00009694908490011612749087009787D22A6
:1014C000D2005143254A118070470146224A1278C2
:1014D0004A43521E1F4B5A6100229A611A461269F2
:1014E00001231A431B4B1A6100BF1A4A1069C20735
:1014F000D20F03D0012212041042F6D0154A12690D
:1015000052085200134B1A6100229A61704701463B
:10151000124A12884A43521E0E4B5A6100229A61A7
:101520001A46126901231A430A4B1A6100BF094A7D
:101530001069C207D20F03D0012212041042F6D064
:10154000044A126952085200024B1A6100229A6141
:101550007047000000E000E06E0700107007001008
:1015600000202A49087001202949087000202949D3
:1015700008700A2028490870002028490870642053
:1015800027490870704722480078002804DD204869
:101590000078401E1E4908701F480078002804DDAE
:1015A0001D480078401E1C4908701D48007800281E
:1015B00004DD1B480078401E194908707047002060
:1015C00012490870134908701449087010480078CF
:1015D000002805DC01200E490870FF200B49087027
:1015E0000D480078002805DC0A200B490870FF2010
:1015F000084908700A480078002805DC642008497A
:101600000870FF200549087070470000720700103D
:10161000750700107307001076070010740700109C
:101620007707001010B531480068401C2F4908604A
:101630000121002002F059F90446002C08D02C4862
:101640000068401C2A4908600121002002F07CF952
:1016500010BD10B527480068401C264908600121CC
:10166000084602F042F90446002C08D022480068DF
:10167000401C214908600121084602F065F9052156
:10168000012002F032F900280CD01C4880691C4966
:1016900008601C480068401C1A49086005210120A8
:1016A00002F052F910BD10B50821022002F01DF918
:1016B000002808D014480068401C1349086008211D
:1016C000022002F041F910BD10B50321084602F0D6
:1016D0000CF9002808D001F0AEFD0321084602F005
:1016E00033F9FF200949087010BD00007807001089
:1016F0007C070010800700108407001000E000E065
:101700009C070010980700108C07001018060010A6
:1017100010B5002819DA8E4A03071B0F083B9B08F7
:101720009B00D2588307DC0EFF23A3409A434B074C
:101730001B0E8407E40EA3401A43854B0407240FB5
:10174000083CA408A4001A5118E0824A03231B0293
:10175000D21883089B00D2588307DC0EFF23A340D6
:101760009A434B071B0E8407E40EA3401A43794BA0
:10177000032424021B198408A4001A5110BD10B5BB
:1017800001220021032002F01FF901220021032081
:1017900002F006F901221146032002F015F9012298
:1017A0001146032002F0FCF810BD10B50122022101
:1017B000002002F009F901220221002002F0F0F8D5
:1017C0004B218901012002F0F3FA01211320FFF7D8
:1017D0009FFF00206049087010BD10B55F48008869
:1017E000642805DA5D480088401C5C49088002E0F6
:1017F00000205A490880594800885749097888428A
:1018000005DA00220221104602F0CAF804E00122A3
:101810000221002002F0C4F810BD10B50446002CCF
:1018200006D0012C10D0022C15D0032C21D119E0A8
:10183000012002F072FA01220221002002F0B0F829
:1018400000204549087014E0012002F05CFA1E20D7
:10185000414908700DE0012002F055FA3C203E4954
:10186000087006E0012002F04EFA64203A49087040
:1018700000BF00BF10BD10B53948C06BC008C00024
:101880003749C8630846C06B012108433449C8631F
:1018900001221146104602F097F801221146104627
:1018A00002F07EF84B218901012003F0EFF90321BA
:1018B0001120FFF72DFF00202A49087010BD10B538
:1018C00029480088642805DA27480088401C2649F2
:1018D000088002E00020244908802348008821492C
:1018E0000978884205DA00220121084602F058F8FA
:1018F00004E001221146104602F052F810BD10B566
:101900000446002C07D0012C0ED103F09AF93220A6
:101910001449087009E0012003F09DF901221146E5
:10192000104602F03DF800E000BF00BF10BD10B54A
:101930000446012C05D100221146032002F030F8A4
:1019400004E001220021032002F02AF810BD00006B
:101950001CED00E000E100E0A4070010A00700106B
:1019600040400440A5070010A207001010B5002257
:101970000B21012002F028F800220A21012002F0A8
:1019800023F800220821012002F01EF8002209217C
:10199000012002F019F800220321104602F014F889
:1019A00000220421012002F00FF800206B4908708A
:1019B00010BD10B50020694908700B21012001F00D
:1019C000FAFF0121C902084214D165480078401C81
:1019D00063490870084600780A2810DD0020087066
:1019E0006048007800280AD101205C4908705D49F0
:1019F000087010BD00205B490870594908700A2121
:101A0000012001F0D8FF01218902084215D1544874
:101A10004078401C52494870084640780A2811DD39
:101A2000002048704F48407800280BD102204B49D5
:101A3000087001204B494870DBE700204949487095
:101A4000474948700821012001F0B5FFFF2101310D
:101A5000084215D142488078401C414988700846A8
:101A600080780A2811DD002088703E4880780028A0
:101A70000BD103203949087001203A498870B8E732
:101A8000002038498870364988700921012001F00A
:101A900092FF01214902084215D13148C078401C0B
:101AA0002F49C8700846C0780A2811DD0020C87088
:101AB0002C48C07800280BD1042028490870012048
:101AC0002849C87095E700202649C8702449C87085
:101AD0000321002001F06FFF0821084215D12048A2
:101AE0000079401C1E490871084600790A2811DD5A
:101AF000002008711B48007900280BD105201749E8
:101B0000087001201749087173E700201549087112
:101B1000134908710421012001F04DFF10210842F2
:101B200015D10F484079401C0D494871084640794D
:101B30000A2811DD002048710A48407900280BD19D
:101B400006200649087001200649487151E7002027
:101B5000044948710249487100BF4AE7B2070010C2
:101B6000A6070010AC07001010B5012209210220C1
:101B700001F02AFF01220921022001F011FF0122B8
:101B80000A21022001F020FF01220A21022001F097
:101B900007FF01220B21022001F016FF10BD70B5D6
:101BA0000446202C01DBFF2403E0E006C00E1149AF
:101BB0000C5C00220921022001F0F2FE002511E058
:101BC00000220A21022001F0EBFEE207D20F0B21D6
:101BD000022001F0E5FE641001220A21022001F03A
:101BE000DFFE6D1C082DEBD301220921022001F03C
:101BF000D7FE70BD8466000000BF0146421ED0B211
:101C00000029FAD1704770B50646002510E0002380
:101C10000AE0002404E0CB20FFF7EEFF601CC4B212
:101C20000F2CF8DB581CC3B2832BF2DB681CC5B247
:101C3000B542ECDB70BD10B5044600220521022040
:101C400001F0AEFE00220421022001F0A9FE21468F
:101C5000002002F0D3FC01220421022001F0A0FEAA
:101C600001220521022001F09BFE10BD10B50446A3
:101C700001220521022001F093FE0022042102200E
:101C800001F08EFE2146002002F0B8FC0122042162
:101C9000022001F085FE01220521022001F080FED4
:101CA00010BD70B504462546E117090F0919091141
:101CB0000901611AC8B2FFF7BEFF2546E117090FF7
:101CC0000919091108461030FFF7B5FF70BD10B5AE
:101CD00004462020FFF7AFFF2046FFF7ACFF10BD02
:101CE00070B505460C462120FFF7A5FF2846FFF7F3
:101CF000A2FF2046FFF79FFF70BD70B505460C465A
:101D00002220FFF798FF2846FFF795FF2046FFF7B0
:101D100092FF70BD10B5044621464022114308468B
:101D2000FFF789FF10BD10B504468120FFF783FF40
:101D30002046FFF780FF10BD10B504468D20FFF749
:101D40007AFF2146102211430846FFF774FF10BDA9
:101D500010B504462146A02211430846FFF76BFF49
:101D600010BD10B504462146A42211430846FFF7D2
:101D700062FF10BD10B504462146A6221143084655
:101D8000FFF759FF10BD10B50446A820FFF753FF19
:101D90002046FFF750FF10BD10B504462146AE2285
:101DA00011430846FFF747FF10BD10B50446214612
:101DB000B02211430846FFF73EFF10BD10B50446A0
:101DC0002146C02211430846FFF735FF10BD10B56C
:101DD0000446D320FFF72FFF2046FFF72CFF10BD4E
:101DE00010B50446D520FFF726FF2046FFF723FF56
:101DF00010BD10B50446D920FFF71DFF2046FFF7A0
:101E00001AFF10BD10B50446DA20FFF714FF214673
:101E1000022211430846FFF70EFF10BD10B504461D
:101E2000DB20FFF708FF2046FFF705FF10BD10B5C8
:101E3000E320FFF700FF10BD70B50646002410E058
:101E40002046FFF7B2FF0020FFF72BFF002504E03C
:101E50003046FFF70BFF681CC5B2802DF8DB601C15
:101E6000C4B2082CECDB70BDF8B50746002602248E
:101E700011E02046FFF799FF0020FFF712FF002531
:101E800005E0B85DFFF7F2FE761C681CC5B2802D38
:101E9000F7DB601CC4B2082CEBDBF8BD10B50020EA
:101EA000FFF7CAFF10BDFFB581B00D4616461F46AD
:101EB0002C4615E02046FFF778FF3846FFF7F1FE85
:101EC0000020009006E00198FFF7D0FE0098401C2B
:101ED000C0B200900A9900988842F4DB601CC4B23A
:101EE000701C8442E6DB05B0F0BD70B5002413E041
:101EF0002046FFF75AFF0020FFF7D3FE002507E03A
:101F00005520FFF7B3FEAA20FFF7B0FE681CC5B24C
:101F1000402DF5DB601CC4B2082CE9DB70BD70B548
:101F20000020FFF742FF0020FFF7BBFE002404E083
:101F30000120FFF79BFE601CC4B2802CF8DB072059
:101F4000FFF733FF0020FFF7ACFE002404E0802001
:101F5000FFF78CFE601CC4B2802CF8DB002411E07B
:101F60002046FFF722FF002508E02846FFF799FEEC
:101F7000FF20FFF77BFE28467F30C5B2802DF4DBC3
:101F8000601CC4B2082CEBDB70BDFFB581B0074606
:101F90000D46012F02D0022F0BD104E0A800281813
:101FA000FF49441805E0681E81004018FD494418A7
:101FB00000BF00BF0398FFF7F8FE0498FFF771FE1B
:101FC000002605E02078FFF751FE641C701CC6B2A5
:101FD000052EF7DB0020FFF749FE05B0F0BDFFB589
:101FE00081B007460D461E462C463346602101202F
:101FF000039AFFF7CAFF0CE0217833463846039A6C
:10200000FFF7C3FF641CB01DC6B22078002800D1C2
:1020100000E0F1E700BF05B0F0BDFFB583B00546B5
:102020000E4617460295344619E02046FFF7BDFEDE
:102030000698FFF736FE002001900AE00299087822
:10204000FFF714FE0298401C02900198401CC0B299
:1020500001900C9901988842F0DB601CC4B2781C96
:102060008442E2DB07B0F0BDFFB581B00F461446F5
:102070000498203881004018C94945180198FFF795
:1020800094FE002F0BD10020FFF70BFE002C03D194
:102090000020FFF7EBFD02E0FF20FFF7E7FD791CD2
:1020A000C8B2FFF7FEFD00260DE0002C03D1287812
:1020B000FFF7DCFD04E02978C943C8B2FFF7D6FD7D
:1020C0006D1C701CC6B2052EEFDB002C03D1002066
:1020D000FFF7CCFD02E0FF20FFF7C8FD05B0F0BD23
:1020E000F8B506460F4614460025082E18DA08E013
:1020F00023783A4629463046FFF7B6FFA81D85B239
:10210000641C2078002801D0012000E00020691C18
:1021100089B2802901DA012100E000210842E7D1DB
:10212000F8BDFFB581B015461F46A320FFF783FD1C
:102130000298FFF780FD2846FFF77DFD01980028F3
:1021400002D0012825D111E000240CE0E0B2FFF715
:10215000E1FD002603E0C820FFF74EFD761C0A983B
:102160008642F8D3E419AC42F0D312E000240DE02B
:10217000291BC8B2FFF7CEFD002603E0C820FFF7F9
:102180003BFD761C0A988642F8D3E419AC42EFD3A3
:1021900000BF00BF0020FFF7BDFD05B0F0BDF8B5E2
:1021A00004460D4616461F46214626221143084680
:1021B000FFF741FD0020FFF73EFD2846FFF73BFDFE
:1021C0003846FFF738FD3046FFF735FD2F20FFF783
:1021D00032FD0698FFF717FDF8BDF8B504460D4629
:1021E00016461F46A320FFF726FD3846FFF723FDBE
:1021F0000698FFF720FD21462931C8B2FFF71BFDE5
:102200000020FFF718FD2846FFF715FD0898FFF797
:1022100012FD3046FFF70FFD0798FFF70CFD2F204A
:10222000FFF709FD0998FFF7EEFCF8BD10B52E2069
:10223000FFF701FD10BD10B50120FFF7ADFD002433
:102240000CE0E0B2FFF76FFDC820FFF7D5FCC82017
:10225000FFF7D2FCC820FFF7CFFC641CD02CF0D3D2
:1022600010BD10B5D0240DE0611EC8B2FFF75BFDB4
:10227000C820FFF7C1FCC820FFF7BEFCC820FFF74D
:10228000BBFC641E002CEFD10020FFF785FD10BDC4
:1022900010B50446002C02D0012C0ED106E000201F
:1022A000FFF77AFD0120FFF75CFD06E00020FFF755
:1022B00058FD0120FFF770FD00BF00BF10BD0120D9
:1022C000FFF74FFD0BE00120FFF766FD0220FFF74F
:1022D0009AFC0020FFF760FD0220FFF794FCF2E774
:1022E00010B50020FFF758FD8020FFF779FD3F2053
:1022F000FFF749FD0020FFF76AFD0020FFF70AFD08
:102300000020FFF719FD0220FFF7E1FC0120FFF795
:102310001FFD0820FFF752FD1020FFF773FDCF20AF
:10232000FFF701FD2220FFF764FD4020FFF776FD57
:102330000020FFF716FD0020FFF71CFD0020FFF72F
:102340007BFD0120FFF728FD10BD10B501220521FE
:10235000022001F039FB0020FFF71EFD8020FFF76F
:102360003FFD3F20FFF70FFD0020FFF730FD00206D
:10237000FFF7D0FC0420FFF7DFFC0220FFF7A7FCEB
:102380000120FFF7E5FC0820FFF718FD1020FFF7FC
:1023900039FDCF20FFF7C7FCF120FFF72AFD03E04E
:1023A00074670000296C00004020FFF737FD002013
:1023B000FFF7D7FC0020FFF7DDFC0020FFF73CFD16
:1023C0000120FFF7E9FC10BD00B587B061A207CA84
:1023D00004AB07C30020FFF72FFD30230093282311
:1023E000052202215E48FFF718FE0520FFF70BFCCF
:1023F000FFF737FF0520FFF706FCFFF71CFF05205E
:10240000FFF701FC2023009301234022002108460E
:10241000FFF787FE0520FFF7F6FB2023009301233B
:10242000402200211846FFF77CFE0520FFF7EBFB5A
:10243000FFF7FCFE0520FFF7E6FB0123002220202A
:102440000193039302920090134611461046FFF742
:10245000C4FE0520FFF7D7FB012300221F21202007
:1024600003936B4607C3134611461046FFF7B5FEAC
:102470000520FFF7C8FB022300220121202003933F
:102480006B4607C31346032200210846FFF7A5FE4B
:102490000520FFF7B8FB022300221F212020039311
:1024A0006B4607C31346032200210120FFF795FE68
:1024B0000520FFF7A8FB022300220121202003931F
:1024C0006B4607C31346072204210120FFF785FE50
:1024D0000520FFF798FB022300221F2120200393F1
:1024E0006B4607C31346072204210020FFF775FE41
:1024F0000520FFF788FBFFF799FE0520FFF783FB18
:10250000FF20FFF799FC0520FFF77DFBFFF7EDFCAF
:102510000520FFF778FB0020FFF78EFCFFF7FFFC9C
:102520000520FFF770FB2523032204A90120FFF7F4
:1025300056FD07B000BD10B5002001F0B9FE022223
:102540000821002001F0ABFFFFF7FFFEFFF7A6FC1C
:1025500010BD0000354E49564953494F4E0000000A
:10256000B466000010B5002400220521012001F00E
:102570002BFA04E0601CC4B20120FEF7A6FF05217F
:10258000012001F018FA2021084201D0642CF1DB6F
:10259000642C01DB012010BD002404E0601CC4B2E7
:1025A0000120FEF792FF0521012001F004FA20210D
:1025B000084201D1642CF1DB642C01DB0120EAE745
:1025C0000020E8E710B5002404E0601CC4B201203C
:1025D000FEF77BFF0521012001F0EDF920210842E3
:1025E00001D0642CF1DB002404E0601CC4B20120A3
:1025F000FEF76BFF0521012001F0DDF920210842E3
:1026000001D1642CF1DB2820FEF75FFF05210120BA
:1026100001F0D1F92021084201D0012010BD002095
:10262000FCE770B50024002506E06006040EFFF705
:10263000C9FF0443681CC5B2082DF6DB204670BDF7
:102640007CB505460E46FFF78DFF002824D10024F7
:1026500005E0FFF7E6FF69460855601CC4B2052C8B
:10266000F7DB6846017840780918684680780918D1
:102670006846C07809186846007981420ED16846DC
:1026800000783070684640787070684680782870AE
:102690006846C078687001E001207CBD0020FCE73E
:1026A00010B52A480078002806D0012812D0022848
:1026B00014D014282DD128E001220521104601F064
:1026C00083F900220521012001F06AF901201F4948
:1026D000087024E002201D49087020E00122052135
:1026E000104601F05DF91E20FEF7EFFE184919486B
:1026F000FFF7A6FF002802D1FF20174908701348F2
:102700000078401C1149087009E000200F4908704A
:1027100005E00E480078401C0C49087000BF00BF5F
:1027200010BD10B501220521104601F04DF901221E
:102730000521104601F034F90020074908700549C9
:102740000870487002490870487010BDB307001047
:10275000B6070010B4070010B807001008B5002134
:10276000009101226946882002F0E4F801226946BE
:10277000882002F0C8F86846007808BD08B5012135
:10278000009101226946882002F0D4F801226946AE
:10279000882002F0B8F86846007808BD704708B590
:1027A000002168460170802141700222694688201C
:1027B00002F0C0F8A948AA49086001200004A9490C
:1027C000086008BD38B50024042100910122694643
:1027D000882002F0AFF801226946882002F093F8C1
:1027E000684604780521009101226946882002F09C
:1027F000A1F801226946882002F085F86846007831
:102800000002044396480068444396480168204605
:1028100002F0B0FB0446204638BD38B50546FFF748
:102820009DFF044620460C2188430446A80020430F
:10283000C4B20021684601704470022269468820B3
:1028400002F078F838BD38B50446FFF787FF054633
:10285000AD08AD00284620430546002168460170BA
:10286000457002226946882002F064F8002C06D0E8
:10287000012C09D0022C0CD0032C13D10EE0012026
:102880000004784908600DE00120000375490860E4
:1028900008E0FF2001307349086003E0102071490F
:1028A000086000BF00BF38BD38B50446FFF766FFBB
:1028B000054628460C2188430546A0002843C5B29A
:1028C000012168460170457002226946882002F0A5
:1028D00031F8002C06D0012C08D0022C0AD0032C91
:1028E00010D10BE05D485E4908600BE05E485C4932
:1028F000086007E05D485A49086003E05C485849B1
:10290000086000BF00BF38BD38B5044600255549F2
:102910000968614308465249096802F02BFB0546E5
:102920000221684601702804010E684641700222A7
:102930006946882001F0FEFF38BD38B50446002501
:1029400048490968614308464549096802F012FB95
:1029500005460321684601702804010E684641704F
:1029600002226946882001F0E5FF38BD38B50546EA
:10297000FFF704FF044620462021884304462046F2
:1029800028430446012168460170447002226946CA
:10299000882001F0CFFF38BD10B5FFF7EFFE0446E9
:1029A00020202040400910BD38B5FFF7E7FE04465F
:1029B0002046202188430446412168460170447026
:1029C00002226946882001F0B5FF38BD38B5FFF70F
:1029D000C5FE0446204680218843044600216846FF
:1029E0000170447002226946882001F0A3FF20464E
:1029F00040210843044600216846017044700222C9
:102A00006946882001F096FF38BD10B5FFF7DAFE61
:102A1000044618480078401C16490870084600789B
:102A20000A2806DB0020087013480460FF201349C1
:102A3000087010BD10B50021012001F00BFFFFF759
:102A4000ADFEFFF7C3FFFFF7AAFE0120FFF72CFF43
:102A500000200A4908700849086010BDCD03000035
:102A6000BC070010C0070010340F0000D03C00006D
:102A700040F30000C4070010C8070010CC07001086
:102A800008B509210091012269463A2001F052FF60
:102A9000012269463A2001F036FF6846007808BDF9
:102AA00008B516210091012269463A2001F042FF43
:102AB000012269463A2001F026FF6846007808BDE9
:102AC00038B50446162168460170447002226946F2
:102AD0003A2001F02FFF38BD10B50520FFF7F0FFB9
:102AE00010BDF8B504460D46164600BFFFF7C8FFF7
:102AF000C007C00FFAD006210091012269463A2092
:102B000001F018FF012269463A2001F0FCFE6846F8
:102B1000007840B2207007210091012269463A20D6
:102B200001F008FF012269463A2001F0ECFE6846F8
:102B3000007840B2287008210091012269463A20AD
:102B400001F0F8FE012269463A2001F0DCFE6846F9
:102B5000007840B23070F8BD70B505460024FFF72C
:102B60009FFF044620460C2188430446A8002043CA
:102B7000C4B22046FFF7A4FF70BD70B5054600241F
:102B8000FFF78EFF0446A408A4002046284304460D
:102B90002046FFF795FF70BDF0B58BB0FB490020D4
:102BA0000856802108423FD1F848002404572046A7
:102BB00002F090FBF649039002F031FA074602F06A
:102BC000BFFBF44AF44B0591049002F0A5FA0022F1
:102BD000F24B0791069002F005FB0991089002F074
:102BE000C6FBEA494860402C02DBED4888605FE0A4
:102BF000204602F06FFB8521C905039002F04CFAD4
:102C0000074602F09DFB0591049003F09DFBE54A09
:102C1000E54B0791069002F07FFA0991089002F0C7
:102C2000A6FBDA49886043E0D84800240457601EB8
:102C300044B2E443204602F04DFB074602F080FB1D
:102C4000D44AD54B0591049002F066FA0022D34B8A
:102C50000791069002F0C6FA0991089002F087FBEE
:102C6000CA494860402C02DBD048886020E02046FA
:102C700002F030FB8521C905019002F00DFA0746EC
:102C800002F05EFB0391029003F05EFB0022C84B52
:102C90000591049002F040FAC24AC34B0791069096
:102CA00002F03AFA0991089002F061FBB749886096
:102CB000B6490C2008568021084240D1B3480C2563
:102CC0004557284602F006FBB149039002F0A7F9E8
:102CD000074602F035FBAF4AAF4B0591049002F076
:102CE0001BFA0022AD4B0791069002F07BFA099186
:102CF000089002F03CFBA5490861402D03DBA84980
:102D0000A248416160E0284602F0E4FA8521C90545
:102D1000039002F0C1F9074602F012FB05910490FE
:102D200003F012FB9F4AA04B0791069002F0F4F9C2
:102D30000991089002F01BFB9449486144E09348D4
:102D40000C254557681E45B2ED43284602F0C2FAED
:102D5000074602F0F5FA8F4A8F4B0591049002F076
:102D6000DBF900228D4B0791069002F03BFA0991A6
:102D7000089002F0FCFA85490861402D03DB8B497D
:102D80008248416120E0284602F0A4FA8521C90565
:102D9000019002F081F9074602F0D2FA0391029005
:102DA00003F0D2FA0022824B0591049002F0B4F9AC
:102DB0007C4A7D4B0791069002F0AEF9099108908C
:102DC00002F0D5FA714948617049182008568021EF
:102DD000084240D16D4818268657304602F07AFAEC
:102DE0006B49039002F01BF9074602F0A9FA694A01
:102DF000694B0591049002F08FF90022674B07910F
:102E0000069002F0EFF90991089002F0B0FA5F49DC
:102E1000C861402E03DB62495C48016260E03046D5
:102E200002F058FA8521C905039002F035F90746EA
:102E300002F086FA0591049003F086FA594A5A4B3B
:102E40000791069002F068F90991089002F08FFA54
:102E50004E49086244E04D4818268657701E46B217
:102E6000F643304602F036FA074602F069FA494A5C
:102E7000494B0591049002F04FF90022474B07910E
:102E8000069002F0AFF90991089002F070FA3F49FC
:102E9000C861402E03DB45493C48016220E03046D2
:102EA00002F018FA8521C905019002F0F5F80746ED
:102EB00002F046FA0391029003F046FA00223C4BDE
:102EC0000591049002F028F9364A374B0791069095
:102ED00002F022F90991089002F049FA2B490862A0
:102EE0000BB0F0BD0EB56A4601A902A8FFF7F9FDC7
:102EF00030480188684608228256881800B22D4959
:102F000008802D480188684604228256881800B23D
:102F10002949088029480188684600228256881875
:102F200000B22649088026480078401C24490870D1
:102F3000084600780A2827DB002008700A211D4A6D
:102F4000105EFDF7C7F940B2104908700A211A4A0D
:102F50000020105EFDF7BEF940B20C4908730A214B
:102F6000164A0020105EFDF7B5F940B20749087611
:102F7000FFF712FE00200F4908800F4908800F4913
:102F80000880FF200F4908700EBD00008C0A001059
:102F9000000080BF9A999999999923400000504068
:102FA0000000B442295C8FC2F5A84C400000B4C2B6
:102FB0000000F0BFD0070010D2070010D4070010A7
:102FC000CE070010D607001010B5FFF785FD0020D2
:102FD0000949087009490870486088600873002131
:102FE0000648016141610020044908760021034838
:102FF000C161016210BD0000D60700108C0A0010EC
:10300000014600200B785B1EDAB2002204E08B5CE4
:103010001B18D8B2531CDAB20B789342F7DC704716
:1030200070B504460D46002C28D10022072102204D
:1030300000F0B6FC00BF6D48C0680221084204D011
:103040006A48C0681021084201D0012000E0002039
:103050000028F0D16548856000BF6448C068102131
:103060000842FAD100BF6148C06814210840042812
:10307000F9D101220721022000F092FC5B48806810
:1030800080B270BDF3B581B00D46802208210020CA
:1030900001F005FA0198FFF7B3FF0090AA21002084
:1030A000FFF7BEFF0024BB210020FFF7B9FF285522
:1030B000641C00270AE00198C15D0020FFF7B0FF03
:1030C0002855641C0120FEF722FA7F1C0198007825
:1030D000B842F0D800200099FFF7A2FF2855641CE1
:1030E000C820FEF714FA0120287000210846FFF7D7
:1030F00097FFAA2806D002220821002001F0CFF96C
:103100000020FEBD0120FEF702FA00210846FFF76D
:1031100087FFBB2806D002220821002001F0BFF95A
:103120000020EEE70120FEF7F2F90198407801282F
:1031300006D0202806D0212806D0222808D105E074
:103140000B2607E0072605E0132603E0032601E02F
:10315000072600BF00BF0027002409E00021084621
:10316000FFF75EFF28550120FEF7D1F97F1C641C94
:10317000B742F3D902220821002001F090F9E0B211
:10318000BFE710B50821022000F015FCFF21013136
:10319000084215D116480078401C154908700846A9
:1031A00000780A2812DD00200870124800780128F3
:1031B0000CD102200F490870FF200F49087005E06C
:1031C00000200B49087001200A49087010BD10B595
:1031D00000220821022000F0F7FB01220821022032
:1031E00000F0DEFB00200449087010BD0000044020
:1031F000D7070010D8070010D907001070B5044693
:103200000D4600221146022000F0CAFBE800802291
:103210001043620010430146012001F0EFF9002144
:10322000012001F0EBF9C6B201220021022000F0DA
:10323000B7FB304670BD10B502210020FFF7DEFF5E
:103240000446A406A40E042C13D100210846FFF75F
:10325000D5FF9A499A4A1288885499480088401C98
:103260009749088008460088802807DB00200880EE
:1032700004E000210846FFF7C1FF044602210120B7
:10328000FFF7BCFF0446A406A40E042C11D10021B4
:103290000120FFF7B3FF8B4908708B480088401C62
:1032A0008949088008460088802807DB00200880BC
:1032B00004E000210120FFF7A1FF044610BD70B516
:1032C00004460D46164600221146022000F068FB17
:1032D000E800620010430146012001F08FF93146F9
:1032E000012001F08BF901220021022000F058FB9F
:1032F00070BDF8B505460E46BF2203212846FFF7EC
:10330000DEFF02212846FFF779FF04462046102100
:103310000843024602212846FFF7D1FF0322114647
:103320002846FFF7CCFF01212846FFF767FF044638
:10333000204610218843024601212846FFF7BFFF9F
:1033400004212846FFF75AFF04462046802188437F
:10335000024604212846FFF7B2FF832203212846B4
:10336000FFF7ADFF3146E120000301F003FE84B218
:10337000E2B200212846FFF7A2FF221201212846CF
:10338000FFF79DFF032211462846FFF798FF002113
:103390002846FFF733FF00220321084600F014FB04
:1033A00000231A4603210846009300F067F9032121
:1033B000084600F042FA012211462846FFF77FFF37
:1033C00000212846FFF71AFFF8BD70B505460C46E8
:1033D00000BF05212846FFF711FF20210842F8D041
:1033E000224600212846FFF76AFF70BD10B504464B
:1033F00021460020FFF7E9FF10BD10B5044604E0A8
:1034000021780020FFF7E1FF641C20780028F7D125
:1034100010BD10B5044621460120FFF7D6FF10BDB0
:1034200010B5044604E021780120FFF7CEFF641CAC
:1034300020780028F7D110BD0246002A17D1234872
:1034400000881F4B1B88984227D01C481F4B1B88A5
:10345000C05C08701D480088401C1C4B1880184632
:103460000088802801DB0020188001207047184860
:103470000088154B1B8898420FD0124800780870BE
:1034800013480088401C124B18801846008880287A
:1034900001DB002018800120E8E70020E6E710B5F6
:1034A000044621460020FFF7C7FF10BD10B50446B3
:1034B00021460120FFF7C0FF10BD0000B00A001038
:1034C000DA070010300B0010DE070010DC070010D8
:1034D000E007001070B5002001F0E2FA0446032076
:1034E00001F0DEFA05461C48006800191A49086018
:1034F0001A48006840191949086019480078401CAA
:1035000017490870084600780A2817DB0020087061
:103510000A211148006801F02DFD124908600A21B6
:103520000E48006801F026FD0F49086000200A4996
:1035300008600A490860FF200C49087070BD10B58A
:103540000B4801F06EFA0020084908700549086030
:103550000549086010BD0000E8070010EC070010E6
:10356000E4070010F0070010F4070010F80700103F
:10357000009F24003149324A11600121314A116013
:103580005160002151600121516000BF2D494968FF
:10359000C907C90FFAD02B4940398868400A400250
:1035A0002021014303221143264A403A91602649D3
:1035B000896B80229143244A916300BF214940399D
:1035C000C968C907C90FF9D003211E4A1163012137
:1035D0005163002151630121516300BF1949496BB7
:1035E000C907C90FFAD00121164A91631449096825
:1035F0008900164A116011460968154A1160704722
:1036000000B502200F4940390860002008620E48CA
:10361000806B202188430C498863002300E05B1CF9
:10362000FF2BFCD9FFF7A6FF0648403000680121B8
:103630000904084303494031086000BD001BB7007E
:10364000FC07001040800440008204400008001085
:103650000408001010B5F348006840210843F14900
:1036600008601F2000F0D7F91E2000F0D4F91D20BB
:1036700000F0D1F91C2000F0CEF910BD70B5049C0B
:10368000002806D0012838D002286AD003287BD130
:103690009CE0002A18D1E44D6D6801268E40B543A8
:1036A000E14E7560002B07D13546AD6801268E408E
:1036B000B543DD4EB5600EE0DB4DAD6801268E40B2
:1036C0003543D94EB56006E0D74D6D6801268E4072
:1036D0003543D54E7560002C07D1D34DED680126DA
:1036E0008E40B543D04EF56006E0CF4DED68012623
:1036F0008E403543CC4EF5609DE0002A18D1CB4D6D
:103700006D6801268E40B543C84E7560002B07D109
:103710003546AD6801268E40B543C44EB5600EE017
:10372000C24DAD6801268E403543C04EB56006E0FF
:10373000BE4D6D6801268E403543BC4E7560002C31
:1037400007D1BA4DED6801268E40B543B74EF560FE
:1037500006E0B64DED6801268E403543B34EF56068
:1037600069E0002A19D1B24D6D6801268E40B5433B
:10377000AF4E7560002B08D13546AD6801268E40EE
:10378000B543AB4EB5600FE054E0A94DAD680126DE
:103790008E403543A64EB56006E0A54D6D68012606
:1037A0008E403543A24E7560002C07D1A04DED68C8
:1037B00001268E40B5439E4EF56006E09C4DED68B7
:1037C00001268E4035439A4EF56034E0002A18D128
:1037D000984D6D6801268E40B543964E7560002B5E
:1037E00007D13546AD6801268E40B543914EB56090
:1037F0000EE0904DAD6801268E4035438D4EB5608C
:1038000006E08C4D6D6801268E403543894E75600B
:10381000002C07D1874DED6801268E40B543854EBB
:10382000F56006E0834DED6801268E403543814EFC
:10383000F56000E000BF00BF70BD002806D0012881
:103840000CD0022812D0032820D117E0764A126942
:1038500001238B401A43744B1A6118E0734A1269B2
:1038600001238B401A43714B1A6110E0704A1269B0
:1038700001238B401A436E4B1A6108E06D4A1269AE
:1038800001238B401A436B4B1A6100E000BF00BF5D
:103890007047002806D001280CD0022812D0032837
:1038A00020D117E0604A126901238B409A435E4B96
:1038B0001A6118E05D4A126901238B409A435B4B01
:1038C0001A6110E05A4A126901238B409A43584BFF
:1038D0001A6108E0574A136901228A409343554A06
:1038E000136100E000BF00BF704710B50246002022
:1038F000002A06D0012A0CD0022A12D0032A20D195
:1039000017E0494B9B6901248C40234200D00120E1
:1039100018E0464B9B6901248C40234200D00120D3
:1039200010E0434B9B6901248C40234200D00120CE
:1039300008E0404B9B6901248C40234200D00120C9
:1039400000E000BF00BF10BD002806D001280CD049
:10395000022812D0032820D117E0334AD26901236C
:103960008B401A43304BDA6118E0304AD2690123A8
:103970008B401A432D4BDA6110E02D4AD2690123A6
:103980008B401A432A4BDA6108E02A4AD2690123A4
:103990008B401A43274BDA6100E000BF00BF70473D
:1039A00030B513468B408400234D2D5901248C40A3
:1039B000A4002B5130BD024690001F4B1B58012024
:1039C000884080001858704730B5002A11D0830015
:1039D000194CE3580124E4031B191B6801248C4093
:1039E00023438400144D2C590125ED0364192360F1
:1039F00010E08300104CE3580124E4031B191B68FA
:103A000001248C40A34384000B4D2C590125ED0368
:103A10006419236030BDC206D20E01219140074ACD
:103A20001160704780800440008000500080015089
:103A30000080025000800350406E000000E100E072
:103A400070B500BF874A9268D0B240104007400F5F
:103A5000032820D1834A5269D1B29E22114205D057
:103A6000814A11607F4A1268D3B270BDCA07D20F73
:103A70003ED07C4C2468E5B27C4C2268541C7B4EC2
:103A800034607B4CA55432461268402A30D3002261
:103A9000344622602CE0022811D1724C2468E5B231
:103AA000724C2268541C714E3460714CA5543246DD
:103AB0001268402A1CD300223446226018E00628EF
:103AC00007D1694A1268FF2401342243664C226000
:103AD0000EE001280CD1634A5269D1B22022114272
:103AE00003D00122634C227002E00022614C22705C
:103AF00000BFBAE7F8B5044601205E49087000200F
:103B00005A49086000BF1520012181405A480160D0
:103B100000BF5A48406AC008C00058494862084679
:103B2000406A01210843554948620846806AC00836
:103B3000C00088620846806A012108434F498862B4
:103B40004F4800680121090308434D4908600120DE
:103B5000886183204349C860494887693946494894
:103B6000006801F007FA06092146304601F002FA22
:103B70000546280A3B494860E8B208600320C8604F
:103B8000072088600846476900BF364840696021C1
:103B900008406028F9D101E032480768314840699F
:103BA000C007C00FF8D100BF152001218140324865
:103BB0008038016000BF05202A494860F8BD0AE04E
:103BC00000BF284A526920231A42FAD00278254BB6
:103BD0001A60401C491E0029F2D1704700BF2149DC
:103BE000496920221142FAD01E490860704700B589
:103BF000034603E018785B1CFFF7F0FF18780028F5
:103C0000F8D100BD0FB400B59BB01DA80090642191
:103C100001A8009B1C9A01F079FE01A8FFF7E7FFBD
:103C2000002000901BB008BC04B01847014616489D
:103C300000680E4A1268904211D00D48124A12686C
:103C4000805C087010480068401C0F4A10601046E5
:103C50000068402801D30020106001207047002038
:103C6000FCE7000000800040140800100C08001061
:103C7000B00B00100808001080E100E08040044014
:103C800080800440040800101008001070B504463D
:103C90000D46002C1AD10220FB4948600020C86064
:103CA0007D21C900F948006801F064F96843F649CC
:103CB0008861FF200860042048610120486000BF3F
:103CC000F1484068C007C00FFAD11BE0012C19D1A0
:103CD0000220EF4948600020C8607D21C900EB4800
:103CE000006801F047F96843E9498861FF200860EE
:103CF000042048610120486000BFE5484068C007D3
:103D0000C00FFAD170BD002803D10121DE4A5160F5
:103D100002E00121DE4A51607047002803D10021F2
:103D2000D94A516002E00021D94A5160704710B56C
:103D30000020FFF7F2FFD4480068C007C00F06D08C
:103D40000120D1490860FEF7ABFCFDF71CFCCE4812
:103D500000681021084202D01020CB4908600020E2
:103D6000FFF7D1FF10BD10B5C9480068C007C00FEC
:103D700004D00120C6490860FDF72FFDC448006843
:103D80001021084202D01020C149086010BD014630
:103D9000002906D1BC4A506802221043BA4A50603A
:103DA00005E0BB4A506802221043B94A5060704790
:103DB00070B504460D46002C3CD1B6480068012180
:103DC00049020843B3490860B348406AC008C000CC
:103DD000B14948620846406A02210843AE49486238
:103DE0000846806AC008C00088620846806A0221CE
:103DF0000843A9498862A84880380069C008C00003
:103E0000A549803908610846006902210843A24992
:103E1000803908610020A1490860A14908609A48DA
:103E2000856105209849886203204861122000F0CE
:103E300050F916E0012C14D196480068A1020843FD
:103E400094490860002097490860974908609048A5
:103E5000856105208E49886203204861132000F0A7
:103E600038F970BD70B504460D46002C12D1894852
:103E700000680121490208438649086000208749FB
:103E800008608148856103207F494861122000F065
:103E900020F912E0012C10D17E480068A1020843ED
:103EA0007C49086000207F490860794885610320CB
:103EB00077494861132000F00CF970BD30B5054614
:103EC0000C4613462846FFF728FF012D62D17148A2
:103ED0000068A90208436F490860B320C000184376
:103EE0006B49C863D807C00F0ED06B484038C06B11
:103EF000C008C00068494039C8630846C06B032148
:103F0000084365494039C863022003420BD0624828
:103F10000068C008C00060490860084600680321C6
:103F200008435D490860042003420BD05A480069E9
:103F3000C008C000584908610846006903210843C9
:103F400055490861082003420BD053484069C00816
:103F5000C0005149486108464069022108434E4962
:103F60004861012018434A49403148634F48046082
:103F70000068474948624D480068400888614B48DE
:103F800000684008C861494800684008086202208B
:103F9000486155E03F4800680121490208433D4916
:103FA0000860CB20C00018433749C8630220034291
:103FB0000BD03948806AC008C0003749886208467B
:103FC000806A0221084334498862042003420ED0EB
:103FD000314880380069C008C0002F498039086125
:103FE00008460069022108432B49803908610820EE
:103FF00003420ED028484038406BC008C000264914
:10400000403948630846406B032108432249403940
:104010004863082018431C49403148632448046021
:104020000068194948622248006888612048006891
:104030004008C8611E4800684008086208154861C9
:1040400030BD002816D0002906D0012907D002294A
:1040500008D003290CD108E00D4B9A6109E00C4B04
:10406000DA6106E00A4B1A6203E0094B5A6200E08B
:1040700000BF2DE000291DD001291ED002291FD02C
:10408000032923D11FE00000004001400408001074
:1040900000800140808004408040044018080010E7
:1040A000200800101C080010240800102C08001024
:1040B000280800100A4B9A6109E0094BDA6106E012
:1040C000074B1A6203E0064B5A6200E000BF00BFD4
:1040D0007047C206D20E01219140024A116070471A
:1040E0000040014000E100E0FE49C869C107C90F76
:1040F00007D0FD490968491CFB4A11600121F94AB2
:1041000011620221084207D0F8490968491CF74AA0
:1041100011600221F34A11620421084204D0F449DB
:104120000968491CF24A11607047F249C869C10721
:10413000C90F07D0F0490968491CEF4A11600121F5
:10414000EC4A11620221084207D0EC490968491C77
:10415000EA4A11600221E74A11620421084204D0B0
:10416000E7490968491CE64A1160704710B50446E2
:10417000002C47D1E348406801210843E1494860E9
:10418000E04880300068C9140843DE498031086087
:1041900002204861DC48006AC008C000DA490862B1
:1041A0000846006A01210843D74908620846406A68
:1041B000C008C00048620846406A01210843D2494D
:1041C00048620120D04940310863CF490863CD4897
:1041D0008030006840210843CA4980310860CA48DD
:1041E0004038C069C008C000C7494039C8610122D1
:1041F00002210020FFF7E8FB012202210020FFF747
:10420000CFFB54E0BF48406804210843BD494860E3
:10421000BC4880300068012189040843B9498031D5
:1042200008600220C861B848C069C008C000B6492B
:10423000C8610846C06902210843B349C861B24851
:104240004030C068C008C000AF494031C86008466F
:10425000C06802210843AC494031C860AA484038D0
:10426000806AC008C000A849403988620846806A50
:1042700002210843A44940398862A248803000687E
:10428000402108439F49803108609F48403880683A
:10429000C008C0009C4940398860012200210220EA
:1042A000FFF792FB012200210220FFF779FB10BDEE
:1042B00010B50446002C69D192484068012108439A
:1042C000904948608F4880300068C91408438D4980
:1042D00080310860022048618B48006AC008C00035
:1042E000894908620846006A012108438649086234
:1042F0000846406AC008C00048620846406A01217A
:1043000008438149486202207F49403108637E4961
:10431000C8607C488030006840210843794980317A
:10432000086079480068C008C00077490860012229
:1043300004210220FFF748FB012204210220FFF79D
:104340002FFB714840380068C008C0006E494039F2
:104350000860012206210220FFF736FB0122062118
:104360000220FFF71DFB68484038006AC008C00003
:10437000654940390862012207210220FFF724FB2A
:10438000012207210220FFF70BFB54E05D48406843
:10439000042108435B4948605A4880300068012185
:1043A000890408435749803108600220C861564893
:1043B000C069C008C0005449C8610846C0690221EC
:1043C00008435149C86150484030C068C008C00027
:1043D0004D494031C8600846C068022108434A4937
:1043E0004031C86048484038806AC008C00046492B
:1043F000403988620846806A0221084342494039B0
:104400008862404880300068402108433D4980313F
:1044100008603D4840388068C008C0003A494039CB
:104420008860012200210220FFF7CEFA012200213C
:104430000220FFF7B5FA10BD70B5054600BF002D8C
:1044400016D1324827490860FE200861002404E0A4
:1044500024488068C6B2601CC4B2082CF8DB142063
:1044600000F003F902201F4948600320486115E06D
:1044700026482049086002200861002404E01D4805
:104480008068C6B2601CC4B2082CF8DB0E2000F0B5
:10449000ECF80220174948600320486170BDF8B568
:1044A00007460D46164600980090002F30D1681E32
:1044B0000721090208430B490860084606610024E9
:1044C00005E008488068C0B20090601CC4B2082CA7
:1044D000F7DB142000F0C9F80220024948600320ED
:1044E00048612FE000000440340800103808001034
:1044F00030080010008005404008001044080010FB
:104500003C080010008004404040044007070000C1
:10451000681E0721090208435749086008460661DA
:10452000002405E054488068C0B20090601CC4B20A
:10453000082CF7DB0E2000F098F802204E49486066
:1045400003204861F8BD70B500BF00232DE00028AE
:1045500015D100BF494DED6812263540022DF9D125
:104560000D78464EB560491C00BF444DED681426D9
:104570003540042DF9D1414DAD68ECB214E000BFD7
:104580003D4DED6812263540022DF9D10D783A4E99
:10459000B560491C00BF384DED6814263540042D28
:1045A000F9D1354DAD68ECB25B1C9342CFD370BDF1
:1045B00030B500231FE000280ED1FF242F4DAC6042
:1045C00000BF2E4CE46814252C40042CF9D12B4C50
:1045D000A4680C70491C0DE0FF24274DAC6000BF9F
:1045E000254CE46814252C40042CF9D1224CA468F5
:1045F0000C70491C5B1C9342DDD330BD0246002A7F
:1046000019D100BF1D48C068122318400228F9D1F3
:104610001A48816000BF1948C06810231842FAD1B7
:1046200000BF1648C068142318400428F9D1134865
:10463000806880B2704700BF0F48C06812231840DE
:104640000228F9D10C48816000BF0B48C0681023D4
:104650001842FAD100BF0848C06814231840042843
:10466000F9D10548806880B2E4E7C206D20E012184
:104670009140034A116070470080054000000440EB
:1046800000E100E010B5012080074068C1B2480792
:10469000400F75D1CB1001F062F90CB3071523ABB5
:1046A000393AB464AC7496B30020AC4A1060AC489C
:1046B0000078012292079060282090610120A94A89
:1046C0001060A2E00020A84A1060A54800780122EE
:1046D00092079060282090610220A24A106094E026
:1046E000A048006801280DD19C4A1068421C9B4BD1
:1046F0001A609E4A1268125C01239B079A6004208C
:10470000984A10600820C20690617EE000BF93487E
:104710000068974A126890420ED2904A1068421C74
:104720008E4B1A60914A1268125C01239B079A60B3
:1047300004208C4A106010E08E480068002806D0E3
:104740002020420610600320864A106005E0052004
:10475000844A10601020820610600820C206906112
:1047600053E084480068012803D1042002079061C7
:1047700002E00420020710600820C206906144E0B5
:104780003EE0012292079268D3B2774A1068421C39
:10479000754C2260784A1268135420460068754AA6
:1047A0001268904205D204206E4A10600207106021
:1047B00005E005206B4A1060042002079061082084
:1047C000C206906121E0012292079268D3B2664A44
:1047D0001068421C644C2260674A1268135405201A
:1047E000604A1060102082061060082090610CE082
:1047F00000BF0820C206906105205A4A106004E0FC
:1048000000BF0820C206906100BF00BF10BD00219C
:104810000020202253061A600BE0524A1268012A37
:1048200001D1FF2006E0554A914201D3002001E06A
:10483000491CF2E700BF704710208106086008207D
:10484000886100BF01208007006810210842F9D16B
:10485000FF20704702464A48406802231843484BED
:10486000586047488030006820231843444B803309
:1048700018604448006B80098001424B1863184659
:10488000006B012318433F4B18631846406B8009A7
:10489000800158631846406B01231843394B586315
:1048A0006C201B049861FF20813058611861022A36
:1048B00001D15007C16000BF0F200123834032485F
:1048C000036000BF402003061860FF20704700B55A
:1048D0000020244908602449086020490860FFF747
:1048E00096FFFF2803D0FFF7A7FF002000BD06E0DA
:1048F0001C480068052802D1FFF79EFF00E0F7E79B
:1049000000BFFF20F2E770B504460D46164620466C
:1049100001210843124908701748056015480660D0
:10492000012013490860FFF7D2FF124800681149BF
:10493000086070BD70B504460D4616460848047000
:104940000A4805600A48066000200A490860FFF727
:10495000BEFF074800680649086070BD580800108F
:10496000700800104808001054080010600800107B
:104970006C0800106808001064080010FFFFFF00BA
:10498000008004400040044000E100E070B50546AE
:104990006848806B102188436649886366480068D0
:1049A00001214903084364490860002404E0002011
:1049B000A100624A5050641C082CF8D3604840693A
:1049C0008F2188435E4948610846406901210843B8
:1049D0005B4948615A484038C06A8F21884358492A
:1049E0004039C8620846C06A012108435449403929
:1049F000C862534880698F218843514988610846BD
:104A00008069012108434E49886129464D48006864
:104A100000F0B0FA401E00024B4908434B490860C1
:104A200070BD70B505464348806B102188434149ED
:104A30008863414800680121490308433E490860F2
:104A4000002404E00020A1003C4A5050641C082CC3
:104A5000F8D33B484038406B872188433849403978
:104A600048630846406B0221084335494039486392
:104A70003348006887218843314908600846006848
:104A8000022108432E49086029462E48006800F09C
:104A900071FA401E00022C4908432C49086070BD81
:104AA00030B50146082900DB002128480068000ACB
:104AB0000002264C20602046046801208840012521
:104AC0002D06284304432148046007E088001F4C5A
:104AD00000190269D00FC00700D000E0F6E700BF60
:104AE0001A48006807242406A043184C20600120BF
:104AF0008007024201D0002030BD1004830D18460B
:104B0000FAE71248006807210906084204D00F4856
:104B1000006888430D4908600C480068FF2108437D
:104B20000A4908600846006801210904084307494A
:104B3000086070470082044080800440F00B001041
:104B400080400440040800100100200000C0014023
:104B500070B504460D46002C1AD10220F849486071
:104B60000020C8607D21C900F648006800F002FA04
:104B70006843F3498861FF200860042048610120F0
:104B8000486000BFEE484068C007C00FFAD11BE084
:104B9000012C19D10220EC4948600020C8607D2119
:104BA000C900E848006800F0E5F96843E649886113
:104BB000FF200860042048610120486000BFE248EF
:104BC0004068C007C00FFAD170BD10B5DC4800685E
:104BD000C007C00F09D00120D9490860DB48006830
:104BE000401CDA490860FCF76AFED54800681021CD
:104BF000084207D01020D2490860D5480068401C00
:104C0000D349086010BD10B5CF480068C007C00F79
:104C100009D00120CC490860CE480068401CCD492D
:104C20000860FCF74CFEC84800681021084207D015
:104C30001020C5490860C8480068401CC649086083
:104C400010BD002803D10121BD4A516002E00121BD
:104C5000BD4A51607047002803D10021B84A516015
:104C600002E00021B84A516070470146002906D190
:104C7000B34A506802221043B14A506005E0B24A7C
:104C8000506802221043B04A5060704770B5044625
:104C90000D46002C3CD1B148006880210843AF4943
:104CA0000860AF48C069C008C000AD49C861084687
:104CB000C06902210843AA49C861A9484030006A76
:104CC000C008C000A649403108620846006A0221B7
:104CD0000843A349403108620846406AC008C00042
:104CE00048620846406A022108439D4940314862B3
:104CF0000020964908609649086091488561052022
:104D00008F49886203204861102000F012F916E0F4
:104D1000012C14D191480068210208438F49086092
:104D200000208C4908608C4908608748856105200F
:104D30008549886203204861112000F0FAF870BDAF
:104D4000F8B506460D4614461F463046FFF783FF6A
:104D5000012E60D181480068310208437F49086014
:104D6000AD20C00020437849C863E007C00F0BD0D6
:104D70007B48806BC008C000794988630846806B17
:104D80000121084376498863022004420ED074480A
:104D90004030C06AC008C00071494031C86208464E
:104DA000C06A022108436E494031C862082020438E
:104DB0006549403148636B48056000686249486254
:104DC0006848006840088861664800684008C86113
:104DD000644800684008086208154861002F16D032
:104DE0005F484069C008C0005D49486108464069A5
:104DF000112108435A4948615B4800688915884376
:104E0000594908600F205049086007208862112026
:104E100000F08FF85BE051480068802108434F495B
:104E20000860AB20C00020434549C863E007C00FBD
:104E30000ED04B484030006AC008C000484940319D
:104E400008620846006A0221084345494031086269
:104E5000022004420ED042484030406AC008C000E0
:104E60003F49403148620846406A022108433C49B4
:104E700040314862042004420ED039484030806AF4
:104E8000C008C0003649403188620846806A032164
:104E90000843334940318862082020432849403183
:104EA0004863324805600068254948622F48006819
:104EB000400888612D4800684008C8612B48006898
:104EC0004008086208154861102000F032F8F8BD6B
:104ED000002816D0002906D0012907D0022908D0C1
:104EE00003290CD108E0184B9A6109E0164BDA61EE
:104EF00006E0154B1A6203E0134B5A6200E000BF54
:104F000016E0002906D0012907D0022908D003297C
:104F10000CD108E00A4B9A6109E0094BDA6106E01E
:104F2000074B1A6203E0064B5A6200E000BF00BF65
:104F30007047C206D20E012191400D4A11607047A0
:104F400000C0004004080010000001407408001078
:104F50007C08001078080010800800108080044051
:104F600000400440880800100080015084080010B0
:104F700000E100E030B50B4601460020202201246C
:104F800009E00D46D5409D4205D31D469540491B7D
:104F90002546954040191546521E002DF1DC30BDC6
:104FA0000549064A08685043054A801808604008C9
:104FB00070470149086070478C0800106D4EC6416B
:104FC0003930000003460B439B0703D009E008C9B2
:104FD000121F08C0042AFAD203E00B78491C0370A0
:104FE000401C521EF9D27047D2B201E00270401C40
:104FF000491EFBD270470022F6E710B5044608466A
:10500000114602462046FFF7EFFF204610BD01463D
:10501000002000E0401C0A5C002AFBD170470246D9
:1050200070B54A40D30FDB0740002DD04A002AD08C
:10503000010E140E091900021202400A520A8418C5
:10504000E50104465443000A120A2E045043A419F1
:105050004219200CC543AA18120C01257F39521C95
:10506000AD0352191204240400D0521C104301D481
:105070004000491EC2B20C06C0092018401C40085E
:10508000802A02D003E0002070BD400840000029C3
:1050900000DA0020184370BD70B502464A40D50FB3
:1050A00040004A00ED0740085208002816D0002AA8
:1050B00014D041000C0E51000B0E41020120C0051E
:1050C0005202490A520AE41A091812187D34914210
:1050D00001D3641C00E04900002C01DA002070BDFF
:1050E0000023914201D3891A034340084900002854
:1050F000F7D100290AD0914202D10121C90705E068
:10510000914201D2012101E00121C943E005C0180B
:10511000401900F094F970BDF0B51FB488B00B9938
:1051200009984840C10FC90700910999002049001A
:10513000490809910B998646490049080B9109993C
:105140000898084303D00B990A98084303D100201C
:1051500001460DB0F0BD099801244000420D480001
:10516000410D099824050003000B204309900B987A
:105170000AAE0003000B20430B905018184940184A
:1051800000220190144610460323032800DA034648
:105190009C46C11A0AE05F0008ADED5B4F00F75B6B
:1051A0007D430027AA187C415B1E491C6145F2DD46
:1051B000430004A9CA522104120C0A43240C401CC7
:1051C0000828E1DB019B0099704602930191009051
:1051D000059B049A0799069800F080F9B9E700004A
:1051E0000DFCFFFFF0B50C465C4085B0E40FE40712
:1051F00003944C000026640859009446490802466E
:105200000296224321D062460A431ED06200570D07
:105210004A000E032303550D024601242C492405A0
:10522000781B1B0B360B4018009023432643604627
:105230001C46101AB44103D30098401C009002E0B1
:10524000921800985B41002803DA0020014605B05F
:10525000F0BD0020012109050746864611E064469D
:105260001D46141BB54106D36546521BB341744617
:1052700007430C43A646CD07400849082843921827
:105280005B4105460D43EAD11046184313D06046F2
:10529000194650407140084303D100220123DB0727
:1052A00009E06046101AB34102D20122002302E055
:1052B0000122D2435310009874460105381C614105
:1052C000029C039D0019694100F0FBF8BFE7000054
:1052D000FD030000C217C10F504010B54018CA07A7
:1052E0009623002100F0B3F810BD00000EB5002297
:1052F000044B0293009201921346114600F0EEF81F
:1053000003B000BD330400004A0009030123090B68
:105310001B051943094B10B5520D9A4201DA0020C2
:1053200010BD064B34339A4203DC9A1A00F076F82B
:1053300010BDCD215118884010BD0000FF030000B2
:10534000C20FD207400040080ED0C10D0723DB0179
:10535000C918090540021143400A0022C308520738
:105360001A43400711437047002001467047CB0F96
:10537000DB07490010B5490802460A4307D00A0D69
:1053800007240903E401090B121B002A01DC002099
:1053900010BDC900440F0C43C100E018D2058018AD
:1053A00000F04DF810BD00000122D207002800DBFC
:1053B000101A002900DB511A88427047F0B51FB45B
:1053C0000646002082B005464024019100901BE073
:1053D000019922460F46304600F020F8049A059BBA
:1053E000801A994110D310461946224600F0DAF986
:1053F000361A8F410197224601200021009F00F0BC
:10540000D1F938184D4100902046641E0028DFDC99
:10541000019B00982946324607B0F0BD10B5202AFE
:1054200004DB0846203AD040002110BD0B46D34093
:10543000D0402024A21A91400843194610BD0029EB
:1054400004DA401C490001D140084000704770B4A4
:105450000024050C05D11024000402D1002922D01B
:105460001124050E01D108340002050F01D1241DBD
:105470000001850F01D1A41C8000002801DB641C01
:105480004000002908D020252E1B0D46F540A140E4
:1054900000D00121294308431B1B0106DB1D000A24
:1054A000002B02DA002070BC7047DB05181880184A
:1054B0000029F8DA401C4900F5D170BC40084000D2
:1054C000704710B5002B08DA0024401C6141921887
:1054D0005B411A4301D14008400010BDF0B51FB434
:1054E00082B005460C0003D0084600F021FA02E025
:1054F00000F01EFA2030024600902146284600F0B7
:1055000051F9049A059B0646039110431943084339
:1055100003D10399304607B0F0BD1046184318D0A8
:10552000009840210A1A19460498FFF777FF0446AD
:105530000D460127009A0599049800F033F90843B5
:1055400000D10027F81705433C4303982643054341
:10555000039500990E98F40A401A03990A304D05F4
:105560002C4373050022CD0A002802DA00200146F0
:10557000D1E70105101969410C9C0D9D0019694185
:10558000FFF79FFFC7E70000F0B507460846584001
:1055900087B0C00F049048000C46590040084908E5
:1055A000BD1A884105D23846214617461C46024698
:1055B0000B4658004008104303D13846214607B037
:1055C000F0BD200D039040055900400D490D059098
:1055D000401A029040286DDA18030121000B0905DA
:1055E0000843019004980092002805D00199524286
:1055F0000020884100920190029840210A1A0199E6
:10560000009800F0CFF806460D46684607C800F03F
:10561000D9F8C0196141039A0B0DD71753403B438A
:1056200043D0049A002A2BD0029A012A039A12DC52
:1056300012050024001B914101231B05001C594148
:10564000D20F059BD20702930192009432462B465B
:10565000FFF744FFB3E71405234A0023A2180F46BF
:10566000C01AA74101210905001C4F4100187F41C4
:10567000114618187941EA0F1043B6196D4114E02C
:10568000EA076D08C3071D437608039B16430022F3
:105690001B05801A994101242405001C6141CC0797
:1056A0004008204349088018594132462B46FFF7ED
:1056B00008FF84E7049801224000C117121A002352
:1056C0008B4104982146C517381AA941EFE730B439
:1056D0000124E407634030BC56E730B40124E407FA
:1056E000614030BC50E700000000E0FF70B54B00A7
:1056F0005B0804461C430AD01C0D00263346654255
:10570000B341D417AD1AA34102DB0020014670BD9E
:105710001205001C514170BD4A0009030123090B09
:105720001B0519430A4B10B5520D9A4202DA0020AC
:10573000014610BD064B34339A4203DC9A1AFFF738
:105740006DFE10BD034BD21800F02CF810BD000008
:10575000FF030000CDFBFFFF10B5002904DB01248F
:10576000E40740428C412146002B04DB1C46012308
:10577000DB075242A341994200D1904210BD000084
:10578000064C0125064E05E02046E36807C82B437A
:1057900098471034B442F7D3FAF796FCA06E000095
:1057A000C06E000010B5202A04DB0146203A91406B
:1057B000002010BD914020239C1A0346E34019436A
:1057C000904010BD10B5202A06DBCB170846203AC2
:1057D0001041C1170B4306E00B461341D040202473
:1057E000A21A91400843194610BDFEB500231A467F
:1057F0001B1A8A4103DB0020014603B0F0BD4A00BA
:105800000D0301212D0B0905520D0D43D10702D1C6
:1058100000186D41521E5110FF31FF310131002738
:1058200004463E4638460097019102460121002079
:105830000905FFF7F3FDC3197141F8183246844694
:105840008E464A4161462846611A904104D360461B
:10585000241A95411F467646241900986D41401C34
:1058600000903428E1DD00223046F919D24370411E
:10587000091B1346A84101D30022134601980105D4
:10588000381C7141FFF71DFEB7E770B58C1805781D
:10589000401C6B075B0F01D10378401C2A1106D115
:1058A0000278401C03E00678401C0E70491C5B1E09
:1058B000F9D12B0705D40023521E0DD40B70491CBF
:1058C000FAE70378401CCB1A921C03E01D785B1C9E
:1058D0000D70491C521EF9D5A142D8D3002070BDCD
:1058E0000FB41CB50A46521E0192009007A9064B40
:1058F0006A46069800F078F9009A002111701CBCE5
:1059000008BC04B018470000336300007CB514469F
:105910001D46491E01910090044B6A4629462046C7
:1059200000F062F9009A002111707CBD3363000021
:105930002021020C01D010211046020A01D00839A2
:105940001046020901D0091F1046820801D0891EA5
:105950001046420801D0881E7047081A704730B4BC
:105960007446641E2578641CAB4204D3635D5B00FF
:10597000E31830BC18471D46F8E700004900CA028A
:10598000104300D004204A0D01D001221043054AE3
:10599000490D914201D102210843012800D105207F
:1059A00070470000FF070000F8B504464F1EC8000E
:1059B0000838211815461E460868496806223B46E5
:1059C000934310D02A463346FFF7A6FB3A46D2004F
:1059D000083AA3181A687F1E5B68FFF7D5FD0622F8
:1059E0003B469343EED1022F23D0042F11D0062F34
:1059F0002FD12A463346FFF78FFBE36AA26AFFF7EF
:105A0000C3FD2A463346FFF787FB636A226AFFF726
:105A1000BBFD2A463346FFF77FFBE369A269FFF728
:105A2000B3FD2A463346FFF777FB63692269FFF728
:105A3000ABFD2A463346FFF76FFBE368A268FFF72A
:105A4000A3FD2A463346FFF767FB63682268FFF72A
:105A50009BFDF8BD034A10B500201107FFF746FE75
:105A600010BD000001FDFFFF02E008C8121F08C1C1
:105A7000002AFAD170477047002001E001C1121FCF
:105A8000002AFBD170470000014908607047000000
:105A900090080010F0B51FB484B007980699020D65
:105AA00001430FD10F98012448A3012807D004987F
:105AB0000F9A84600360C260416009B0F0BD0E9827
:105AC000C143F4E7424843491018484305140F986E
:105AD00001280E980CD0281A401C00243E4E3F4945
